:020000040800F2
:10000000A81C0020AD0100088B210008311F00084A
:1000100089210008D90900088D310008000000007E
:10002000000000000000000000000000772B000826
:10003000BD0A000800000000AD210008792B00086F
:10004000C7010008C7010008C7010008C701000870
:10005000C7010008C7010008C7010008C701000860
:10006000C7010008C7010008C7010008C701000850
:10007000C7010008C7010008C7010008C701000840
:10008000C7010008C7010008A90800080000000017
:10009000000000000000000000000000C701000890
:1000A000C7010008C7010008C7010008C701000810
:1000B000C7010008C7010008C7010008C701000800
:1000C000C7010008C7010008C7010008C7010008F0
:1000D000C70100084D310008C701000800000000FA
:1000E000C7010008C7010008C701000800000000A0
:1000F000000000000000000000000000C701000830
:1001000000000000C7010008C7010008C70100087F
:1001100000000000000000000000000000000000DF
:10012000DD090008E9090008F5090008C701000811
:10013000C7010008000000000000000000000000EF
:10014000000000000000000000000000C7010008DF
:10015000C7010008010A00080D0A00086D310008F7
:10016000C7010008C70100080000000000000000EF
:10017000000000000000000000000000000000007F
:1001800000000000C701000800000000000000009F
:10019000C7010008C7010008DFF80CD000F01EFB03
:1001A00000480047513D0008A81C00200648804731
:1001B00006480047FEE7FEE7FEE7FEE7FEE7FEE74C
:1001C000FEE7FEE7FEE7FEE7292C0008990100089C
:1001D0002DE9F05F0546002092469B46884606467C
:1001E000814640241BE0284641464746224600F00F
:1001F00079F953465A46C01A914110D31146184610
:10020000224600F060F92D1A67EB01084F4622469E
:100210000120002100F057F917EB00094E41201E84
:10022000A4F10104DFDC484631462A464346BDE8D6
:10023000F09F40EA01039B0703D009E008C9121FA1
:1002400008C0042AFAD203E011F8013B00F8013B90
:10025000521EF9D27047D2B201E000F8012B491EBC
:10026000FBD270470022F6E710B513460A46044653
:100270001946FFF7F0FF204610BD2DE9FE4F81EA39
:10028000030404F0004421F0004100944FF0000BFF
:1002900023F0004350EA01045ED052EA03045BD02D
:1002A000C3F30A54C1F30A552C44A4F2F334019465
:1002B000A0FB0254C1F3130141F48011C3F31303F3
:1002C00043F4801301FB024400FB034E840A970AA7
:1002D00044EA815447EA8357A4FB076802958D0AD4
:1002E00005FB07854FEA932C04FB0C542705029D60
:1002F0004FEA065847EA1637B5EB08056EEB070CD0
:10030000870E920E47EA811742EA8312A7FB020189
:10031000B6EB0B0164EB00042B0D43EA0C335E18C3
:1003200044EB1C50DA465146E7FB0201C5F31304C7
:100330004FEA0B3343EA14534FEA0432019C43EA79
:100340000603A4F10C040294009CCDE900B400F073
:100350001FF903B0BDE8F08F00200146F9E72DE951
:10036000F04D81EA030404F0004B21F000451446EF
:100370004FF0000A23F0004150EA050220D054EA71
:1003800001021DD0C5F30A570246C5F31303C1F39A
:100390001300C1F30A5640F4801543F48013A7EB11
:1003A0000608101BD64608F2FD3873EB050002D391
:1003B00008F1010801E092185B41B8F1000F03DA7F
:1003C00000200146BDE8F08D00204FF48011064664
:1003D00084460EE0171B73EB050705D3121B63EB76
:1003E000050306434CEA010C49084FEA3000921815
:1003F0005B4150EA0107EDD152EA030012D082EAD4
:10040000040083EA0501084305D0101BAB4106D266
:100410000122002306E000224FF0004302E06FF0CB
:10042000010253101AEB06004CEB085110EB0A00C6
:1004300041EB0B01BDE8F04D00F09BB800F000422D
:1004400030F000400AD0C10D01F56071C0F3160014
:1004500042EA0151C208400711437047002001469B
:10046000704701F0004330B421F0004150EA01022E
:1004700006D00A0DA2F56072C1F31301002A02DC56
:1004800030BC00207047440F44EAC104C100E018AA
:1004900030BC00EBC25000F035B830B50B46014619
:1004A00000202022012409E021FA02F59D4205D313
:1004B00003FA02F5491B04FA02F52844151EA2F1BD
:1004C0000102F1DC30BD202A04DB203A00FA02F1FF
:1004D000002070479140C2F1200320FA03F3194332
:1004E00090407047202A04DB203A21FA02F00021D4
:1004F000704721FA02F3D040C2F120029140084334
:10050000194670470029A8BF7047401C490008BF22
:1005100020F00100704710B4B0FA80FC00FA0CF033
:1005200050EA010404BF10BC704749B1CCF120046B
:1005300021FA04F411FA0CF118BF012121430843F8
:10054000A3EB0C01CB1D4FEA00614FEA102042BF24
:10055000002010BC704700EBC35010440029A4BF1A
:1005600010BC7047401C490008BF20F0010010BCBF
:10057000704710B5141E73F1000408DA401C41F1F5
:10058000000192185B411A4301D120F0010010BD17
:100590002DE9F04D92469B4611B1B1FA81F202E08D
:1005A000B0FA80F220329046FFF78DFF04460F46E6
:1005B00040EA0A0041EA0B0153465A46084313D069
:1005C000114653EA010019D0C8F140025046FFF726
:1005D00089FF05460E46504659464246FFF773FFCF
:1005E000084305D0012004E020463946BDE8F08DDF
:1005F0000020054346EAE0762C4337430A9863051A
:10060000E40AA0EB08000022FD0A44EA47540A303D
:1006100002D500200146E9E7010510196941DDE92D
:10062000084500196941BDE8F04DA2E72DE9FE4FEC
:10063000804681EA0300C00F0C46009021F0004183
:1006400023F00045B8EB0200A94105D240462146FF
:1006500090461C460B46024623F00040104347D00C
:10066000270DC7F30A00C3F30A510290401A019004
:1006700040286BDAC3F3130040F4801B00989246C5
:1006800020B10023D2EB030A63EB0B0B0198594610
:10069000C0F140025046FFF716FF06460D46504691
:1006A0005946019A00F0ACF810EB080061410024B3
:1006B00087EA115284EAE7731A4340D0009A62B382
:1006C000019A012A4FEA075215DC001B61EB020177
:1006D0004FF0004202EA0752CDE90042001C41F50A
:1006E000801132462B46FFF753FF03B0BDE8F08F71
:1006F00040462146F9E7001B61EB0201001C41F571
:10070000801300185B412018A2F5001747EB030186
:1007100040EAD570B6196D4111E06D084FEA360612
:1007200045EAC0754FEA0752001B61EB0201001C4D
:1007300041F5801149084FEA300000195141324615
:100740002B4603B0BDE8F04FFFF713BF009801221E
:1007500040000023D0EB020263EBE07300982146D7
:100760004FEAE074B8EB000061EB0401E9E783F0C5
:1007700000435BE781F0004158E7C1F30A52C1F33F
:10078000130140F2FF3341F480119A4202DA002053
:100790000146704740F233439A42A2F2334202DCF0
:1007A0005242FFF79FBEFFF78EBE000030B5041E19
:1007B00071F1000404DB4FF00044404264EB01019E
:1007C000141E73F1000405DB1C464FF00043524237
:1007D00063EB0403994208BF904230BD064C074DBD
:1007E00006E0E06840F0010394E807009847103401
:1007F000AC42F6D3FFF7D4FC9C3F0008BC3F000896
:10080000202A06DBCB17203A41FA02F043EAE073D4
:1008100006E041FA02F3D040C2F1200291400843C1
:100820001946704710B50146806B026C12F0500FEC
:1008300005D0806BC26CBDE8104008461047016CC3
:1008400041F40071016401688A6812F0405F17D1B9
:100850008269AAB9CA6A12F4700F02D08A68520576
:100860000ED44A6822F020024A60016C21F48071A3
:100870000164016CC90403D4016C41F001010164FD
:1008800000F0C8F910BD10B5806B40210164416CC7
:1008900041F00401416400F0BFF910BD10B5806B58
:1008A00000F0B9F910BD0000014800F0B6B9000031
:1008B00020090020454910B54A6822F440324A60B8
:1008C0004A6843681A434A6001684A6822F48072A1
:1008D0004A6001684A68036942EA03224A60016883
:1008E0004A6822F040724A6001684A6883681A4385
:1008F0004A6001688A6822F400628A6001688A6836
:10090000C3681A438A60816A6FF07062D1420168DD
:100910008A6822F070628A6001688A680CD0836AF3
:100920001A438A6001688A6822F040528A6001682E
:100930008A68C36A1A4301E022F040528A60016863
:100940008A6822F002028A6001688A68836942EA42
:1009500043028A60016A002901684A680FD042F4A4
:1009600000624A6001684A6822F460424A60016895
:100970004A68174C436A04EB43331A4301E022F4FC
:1009800000624A600168CA6A22F47002CA620168A1
:10099000CA6A838B0F4C04EB03531A43CA62016883
:1009A0008A6822F400728A6001688A68036B42EAEE
:1009B00043228A6001688A6822F480628A60016842
:1009C0008A68406942EA8020886010BD00230140A7
:1009D00000E0FFFF0000F0FFFEE70000014800F02C
:1009E000CFBA000068090020014800F0C9BA000031
:1009F000080B0020014800F0C3BA0000480A00209C
:100A0000014800F0BDBA0000680B0020014800F06A
:100A1000B7BA0000A80A002001681823CAB2103A29
:100A2000B2FBF3F2054B6FF30901032A9B5CC3652C
:100A300000D9091D8165084670470000043F000881
:100A400010B5014600208B698A6A4FF0C07453B11B
:100A5000B3F5005F15D072B1012A0CD0022A0AD07A
:100A6000032A09D104E01AB1012A06D0022A03D1CF
:100A7000C96AC90100D5012010BDC96AA142FAD0D6
:100A800010BD002AF7D0012AF2D0022AF3D0032A9F
:100A9000F3D010BD30B50468256825F480252560A5
:100AA000046863608368402B036803D09960006822
:100AB000C26030BD9A600068C16030BD7047704749
:100AC00078B50024009490F83C20012A19D0012226
:100AD00080F83C200A6807230568092A13D9EE68C4
:100AE0000A3A02EB420293409E43EE600A788B681A
:100AF0000A3A02EB420293400268D5682B43D36066
:100B000010E0022078BD2E6902EB420293409E4322
:100B10002E610A788B6802EB4202934002681569E5
:100B20002B4313614A681F23072A13D205686E6B93
:100B3000521E02EB820293409E436E630B790A8839
:100B40005B1E92B203EB83039A4003685D6B2A43FA
:100B50005A6327E005680D2A12D22E6BD21F02EBD2
:100B6000820293409E432E630B790A88DB1F92B268
:100B700003EB83039A4003681D6B2A431A6311E059
:100B8000EE6A0D3A02EB820293409E43EE620B79CD
:100B90000A880D3B92B203EB83039A400368DD6A37
:100BA0002A43DA62174B0568154A9D4206D10D6843
:100BB000122D03D1556845F48005556005689D42A6
:100BC00019D1114D0B68AB4201D0112B13D15368D1
:100BD00043F4000353600968A9420CD10B490C4A45
:100BE0000968B1FBF2F101EB8101490000E0491E07
:100BF00000910029FBD180F83C40002078BD000026
:100C000000230140002001401200001010000020CD
:100C100040420F0070477047704770B50446006847
:100C200001684268C1F34001C2F3401251B34AB3B4
:100C3000216CC90603D4216C41F4007121648168E0
:100C400011F0405F17D1A169A9B9C16A11F4700F01
:100C500002D0816849050ED4416821F0200141602D
:100C6000206C20F480702064206CC00403D4206CBD
:100C700040F0010020642046FFF7CCFF21686FF0B0
:100C800012000860206801684268C1F38001C2F365
:100C9000C01289B382B3216CC90603D4216C41F41C
:100CA00000512164816811F4401F1ED1816B11F441
:100CB000401F02D08168490517D44168490514D402
:100CC000816811F0405F10D1A16971B9416821F0CC
:100CD00080014160206C20F480502064206CC005AD
:100CE00003D4206C40F0010020642046FFF7E7FEAB
:100CF00021686FF00C00086020680168426811F0FC
:100D0000010FC2F380120ED06AB10068C0070AD08A
:100D1000206C40F480302064204600F046F82168C2
:100D20006FF001000860206801684268C1F340115B
:100D3000C2F3806200290DD0002A0BD0616C41F013
:100D4000020161646FF0200505602046FFF764FF33
:100D50002068056070BD70B504004FF0000503D039
:100D6000206C002610B107E0012070BD666484F895
:100D70003C60204600F01AF8206CC00610D4206CAD
:100D800020F4885040F0020020642046FFF792FDD6
:100D90006664206C20F0020040F00100206400E056
:100DA000012584F83C60284670BD704770B5064642
:100DB0000068204986B088423AD11F480025016862
:100DC00041F4807101600068032400F48070059094
:100DD00010208DE831006946184800F047FA0120DC
:100DE0008DE831006946164800F040FA164C154867
:100DF000C4E900050015A560C4E9035080006061E6
:100E00008000A0618011C4E907052046656200F0FA
:100E100087F918B18A210DA002F084FAB463002288
:100E200011461220A66300F081FB122000F072FB35
:100E300006B070BD0020014044380240000002406E
:100E40000004024010640240680900202E2E2F5337
:100E500072632F6164632E6300000000F8B50E46D4
:100E600000210446009190F83C00012807D00120A1
:100E700084F83C0020688368DB0702D011E0022080
:100E8000F8BD836843F0010383602D482D4B006853
:100E9000B0FBF3F000EB400000E0401E00900028A3
:100EA000FBD120688368DB0748D0236C40F20165E2
:100EB000AB4343F4807323644068400505D5206C40
:100EC00020F4005040F480502064206CC00404D50D
:100ED000606C20F00600606400E0616484F83C10FF
:100EE000A16B1A48184DC863A16B19480864A16B1F
:100EF0001848C86421686FF02200086020684168C3
:100F000041F0806141602068816841F480718160B6
:100F10002168134632464C31A06B00F06BF96868CB
:100F2000C006206802D00C49884207D1816811F0C0
:100F3000405F03D1816841F0804181600020F8BDAD
:100F40001000002040420F00002301402508000847
:100F50009D080008870800080020014090F835101F
:100F6000022903D08021416501207047052180F8C6
:100F700035100068016821F0010101600020704710
:100F80002DE9F84304464FF00009CDF8009063487E
:100F90004FF41651A56D0068B0FBF1F72E6894F878
:100FA0005C10082000FA01F131420FD021680A6874
:100FB00052070BD50A6822F004020A6094F85C100C
:100FC0008840A860606D40F00100606594F85C1096
:100FD0004FF0010808FA01F0304208D02168496951
:100FE000090604D5A860606D40F00200606594F8C1
:100FF0005C1004208840304208D0216809688907C5
:1010000004D5A860606D40F00400606594F85C1041
:1010100010208840304218D021680968090714D58B
:10102000A86020680168490304D50068000308D55A
:10103000A16C07E00168C90503D4016821F008012B
:101040000160216C09B12046884794F85C1020208B
:101050008840304231D021680968C9062DD5A86082
:1010600094F8350005282068016806D0490347D563
:10107000006800031DD4616C1CE021F016010160C2
:101080002068416921F080014161206C08B9A06CA1
:1010900020B12068016821F00801016094F85C101B
:1010A0003F208840A86084F8349084F83580216D12
:1010B0001FE0E16B09B120468847606D00282BD006
:1010C000606DC00714D0052084F8350020680168E1
:1010D00021F0010101600098401C0090B84203D843
:1010E00020680068C007F6D184F8349084F8358011
:1010F000E16C002910D001B02046BDE8F04308475C
:101100000168C905D5D4016821F01001016084F897
:10111000349084F83580CCE7BDE8F88310000020D7
:101120002DE9F041044600F06BF906465CB100255C
:1011300084F83450022084F835002068016821F0DA
:10114000010101600DE00120BDE8F08100F058F9D7
:10115000801B052805D920206065032084F8350010
:10116000F2E720680068C007F0D1226811682048C3
:101170000140D4E901031843D4E90336334318434B
:1011800063691843A3691843E3691843236A184342
:101190000843616A042903D1D4E90B1319430843B6
:1011A000106020684069666A20F0070130460E43EF
:1011B000012704280CD1A06A0643E06A40B120460A
:1011C000FFF73EFC20B14020606584F83570BAE737
:1011D000206846612046FFF71FFC94F85C203F2101
:1011E00091408160656584F835700020ACE70000AF
:1011F0003F8010F02DE9F0410446866D90F83400F0
:10120000002501280DD0012084F8340094F83570B1
:101210000020012F07D084F8340002252846BDE8BD
:10122000F0810220FBE7022784F8357060652046D4
:10123000FFF730FC94F85C103F208840B0602068D5
:10124000016841F0160101602068416941F08001A8
:101250004161206C20B12068016841F00801016003
:101260002068016841F001010160D7E72DE9F84FDE
:10127000DFF860B100224FF001084FF0030A4FF091
:101280000F090BF1040E00BF0B6808FA02F42340AB
:10129000A3426ED14D68022D01D0122D0ED1D5087A
:1012A00000EB850CDCF820505607F70E09FA07F61C
:1012B000B5430E69BE402E43CCF820600668550049
:1012C0000F790AFA05FC07F0030726EA0C06AF407F
:1012D000374307604E68012E05D0022E03D0112E31
:1012E00001D0122E0ED18668CF6826EA0C06AF40D8
:1012F000374387604668A6430C79C4F300149440D2
:1013000034434460C6688C6826EA0C06AC4034431B
:10131000C4604C68E40056D52F4C256845F48045E0
:101320002560246822F0030504F4804400942B4CCB
:101330002E19D6F8084895072F0F09FA07F5AC4380
:10134000274DA84201D1002515E0264DA84201D124
:10135000012510E0244DA84201D102250BE0234DC8
:10136000A84201D1032506E0214DA84202D104255F
:1013700001E028E00725BD402543C6F80858DBF802
:1013800000405D464E689C43F60300D51C432C602C
:10139000DEF8004075464E689C43B60300D51C43FA
:1013A0002C600C4D08352C684E689C43F60200D525
:1013B0001C432C60074D0C352C684E689C43B602CC
:1013C00000D51C432C60521C102AFFF45DAFBDE811
:1013D000F88F0000003C01404438024000300140DA
:1013E000000002400004024000080240000C0240DD
:1013F000001002400AB1816170470904FBE7000058
:10140000014880687047000004000020024881689D
:101410000278114481607047040000200B4810B529
:10142000016841F400710160016841F4806101606C
:10143000016841F480710160032000F097F80020FA
:1014400000F006F800F024F8002010BD003C024037
:1014500070B50D4D04464FF47A712878B1FBF0F069
:101460000A490968B1FBF0F000F01BFB48B9102CE9
:1014700007D200222146501E00F058F800206C6070
:1014800070BD012070BD000004000020100000208D
:101490001F4808B5016841F480410160006800F40C
:1014A000804000901A48001F016841F0805101609F
:1014B000006800F080500090032000F057F80022F0
:1014C00011466FF00B0000F031F8002211466FF06A
:1014D0000A0000F02BF8002211466FF0090000F01E
:1014E00025F800221146501F00F020F80022114676
:1014F000101F00F01BF800221146901E00F016F895
:101500000022BDE808401146501E00F00FB8000050
:101510004438024000F01F02012191404009800040
:1015200000F1E020C0F8001170470000F0B40E4B4D
:101530001B680C46C3F30223C3F10705042D00D931
:101540000425191D072901D2002300E0DB1E012616
:1015500006FA05F1491E214099409E40761E16402C
:101560003143F0BC00F012BE0CED00E0064900F083
:10157000070208684FF6FF03184040EA0220034ABA
:1015800010430860704700000CED00E00000FA0511
:101590002DE9F0470E46050065D0DFF81481D8F834
:1015A0000000F7B200F00F00B04207D288F80070D8
:1015B000D8F8000000F00F00B04254D128683D4C2C
:1015C000810712D5400703D5206840F4E050206021
:1015D0002878000703D5206840F460402060206828
:1015E000A96820F0F000084320602878C0072DD0BB
:1015F000304968680839012812D0022813D003281E
:1016000011D00968890700292DDA216821F003012A
:1016100001432160FFF7F4FE814641F2883A0EE073
:1016200009688903EFE709688901ECE7FFF7E8FE3D
:10163000A0EB0901514502D90320BDE8F0872068DD
:10164000696800F00C00B0EB810FEFD1D8F8001002
:10165000404601F00F01B14207D90770006800F061
:101660000F00B04201D00120E7E72878400705D5F8
:101670002068E96820F4E0500843206028780007DB
:1016800006D52068296920F4604040EAC100206046
:1016900000F03CF82168084AC1F30311515CC840CE
:1016A000064908600020FFF7D3FE0020C5E70000D0
:1016B000003C0240083802400C3F000810000020A7
:1016C00001480068704700001000002004480549E8
:1016D00000680968044AC1F38221515CC840704720
:1016E00010000020083802401C3F0008044805494B
:1016F00000680968044AC1F34231515CC840704730
:1017000010000020083802401C3F0008154810B5A2
:10171000006810F00C02144813D04110042A0FD0B6
:10172000082A0ED10F4C241F2268236802F03F02C2
:101730005B0207D52068C0F38810A0FB010106E01A
:10174000084610BD2168C1F38811A1FB00010023E8
:10175000FEF73EFD2168C1F30141491C4900B0FB81
:10176000F1F010BD083802400024F4002DE9F84FD4
:10177000050076D02878DFF8F8B2BE4CC00749D013
:10178000DBF800105846C1F38101012908D0006838
:10179000C0F3810002280AD1201D0068400206D54E
:1017A0002068800336D568680028E2D032E0686897
:1017B000B0F5803F10D0B0F5A02F206810D020F4F5
:1017C00080302060206820F4802020606868A0B10C
:1017D000FFF716FE06460CE0206840F48030F4E780
:1017E00040F480202060F7E7FFF70AFE801B6428A2
:1017F00073D820688003F7D50CE0FFF701FE06469A
:1018000005E000BFFFF7FCFD801B6428F0D82068CE
:101810008003F7D42878DFF8608280074FF0000952
:101820003ED5DBF80010584611F00C0F09D00068C7
:10183000C0F3810002280BD18D48001F00684002D0
:1018400006D42068800715D5E868012809D111E081
:10185000E868B8B10120C8F80000FFF7D1FD0646DE
:1018600005E002E1FFF7CCFD801B0228C0D820680C
:101870008007F7D52068296920F0F80040EAC10008
:1018800020600DE0C8F80090FFF7BAFD064604E0BE
:10189000FFF7B6FD801B02281FD820688007F7D409
:1018A0002878000722D5724E744869696C3671B188
:1018B00001210160FFF7A4FD074604E0FFF7A0FD4A
:1018C000C01B022809D830688007F7D50EE0C0F8A1
:1018D0000090FFF795FD074605E083E0FFF790FDD8
:1018E000C01B02287ED830688007F7D428784007CC
:1018F00068D5DFF87CA100270AF1380ADAF8000081
:10190000C0000BD4DAF8001041F08051CAF8001082
:10191000DAF80000012700F080500090584E30683F
:10192000C00510D4306840F480703060FFF768FD67
:10193000009005E0FFF764FD0099401A022851D895
:101940003068C005F6D54A4EA868683601280FD021
:101950000528306810D020F001003060306820F099
:1019600004003060A868B8B1FFF74AFD00900FE0AE
:10197000306840F00100F4E740F004003060F7E721
:10198000FFF73EFD0099411A41F28830814264D848
:1019900030688007F4D50EE0FFF732FD009007E0D5
:1019A000FFF72EFD0099411A41F28830814254D848
:1019B00030688007F4D42FB1DAF8001021F080519C
:1019C000CAF80010A869C0B3DBF80010C1F38101A8
:1019D00002294AD00228484607D0C8F86000FFF71D
:1019E0000FFD00E039E005463AE04746C8F86000E0
:1019F000FFF706FD064604E0FFF702FD801B022804
:101A00002BD820688001F7D4D5E907010843A96ADB
:101A10001C4A490802EB01416A6A41EA8211084303
:101A200095F82C1040EA01611148001F0160012067
:101A30003866FFF7E5FC054605E014E0FFF7E0FC3B
:101A4000401B022809D820688001F7D50BE000BFB1
:101A5000FFF7D6FC401B022802D90320BDE8F88F0F
:101A600020688001F4D40020F8E70120F6E70000A8
:101A7000083802400038024000004742800E4742CA
:101A8000007000400000FFFF4FF0E02104280869CB
:101A900003D020F004000861704740F00400FAE72A
:101AA000704710B5401EB0F1807F01D3012010BDFA
:101AB0004FF0E02460610F21601700F067FB002009
:101AC000A06107202061002010BD10B5FFF7E8FFDE
:101AD00010BD704770B5026804461068D16853693C
:101AE00010F00F0F50D003F0010501F4907635434C
:101AF0005DD0C20705D0CA0503D5E26B42F00102F2
:101B0000E263420705D5DA0703D0E26B42F0020236
:101B1000E263820705D5DA0703D0E26B42F00402E4
:101B2000E263020705D5DA0703D0E26B42F0080250
:101B3000E263E26B002A33D0800604D5880602D522
:101B4000204601F002F920684069E16BC0F3801083
:101B5000090700D428B3204601F0E0F82068416965
:101B600049061AD5416921F040014161606BA0B17D
:101B70001B490165606BFFF7F1F9002810D0606B1D
:101B8000016DBDE870400847830610D58B060ED561
:101B90002046BDE8704001F0D8B82046FFF799FF15
:101BA00070BD2046FFF795FF0020E06370BD03067F
:101BB00006D50B0604D52046BDE8704001F062BA98
:101BC0004006F3D54806F1D5D168204621F0400102
:101BD000D160202184F8391000F0A9F970BD00000F
:101BE0007D2C000870B5040004D094F8390000255D
:101BF00010B106E0012070BD84F83850204600F096
:101C000023F8242084F839002068C16821F40051A9
:101C1000C160204601F0E0F82068016921F490419C
:101C200001612068416921F02A0141612068C16891
:101C300041F40051C160E563202084F8390084F844
:101C40003A00002070BD00002DE9F04F0446D0F8A6
:101C500000C05648DFF85081C0210222012303272B
:101C60000025061587B04FF0400B4FF4807AC4452D
:101C700048D1D0F800C04CF0100CC0F800C000688B
:101C800000F010000590072004908DE88E00694652
:101C90004748FFF7EBFA484F46484FF00069386075
:101CA000C7E90195C7E903567D61C7E9065A3D6258
:101CB000D04638467D62FFF733FA18B185213FA040
:101CC00001F030FB6763BC633B4F3A4860377830C4
:101CD000C7E903567D61C7E906583D627D6287E822
:101CE000010A3846FFF71CFA18B1972133A001F01A
:101CF00019FB2763002211462520BC63FFF716FC61
:101D000025204CE0DFF8C480C4454AD1D0F800C09B
:101D10004CF0200CC0F800C0006800F020000590D6
:101D2000082004908DE88E0069462948FFF79EFA46
:101D3000214F2048C037183838604FF02069C7E974
:101D40000195C7E903567D61C7E9065A3D62D04651
:101D500038467D62FFF7E4F918B1C42117A001F0FD
:101D6000E1FA6763BC631B4F1248C7E903567D6104
:101D7000C7E906583D6260307D6287E8010A38464F
:101D8000FFF7CEF918B1D6210CA001F0CBFA2763EA
:101D9000002211464720BC63FFF7C8FB4720FFF72E
:101DA000B9FB07B0BDE8F08F001001404438024095
:101DB0000004024040640240480A00202E2E2F53A7
:101DC00072632F75736172742E63000000140140FA
:101DD00000080240680B0020F8B5044690F83A006D
:101DE00020283CD1C1B3BAB394F83800012836D0CA
:101DF000012084F83800A162A2850025E563222035
:101E000084F83A00636B1748D863636B164818640C
:101E1000636B1648D864606B134605650846666BAD
:101E2000216802463046091DFFF7E4F92068016881
:101E30004168009184F83850C16841F48071C160F4
:101E40002068416941F0010141612068416941F028
:101E5000400141610020F8BDFFE70120FBE70220BF
:101E6000F9E70000D72C0008132D00088D2C00087E
:101E7000704770472DE9F843044690F839001F4633
:101E800016460D46202850D1A5B19EB194F83800D1
:101E900001284AD0012084F838004FF00008C4F827
:101EA0003C80212084F83900FFF7AAFAA6848146F5
:101EB000E68426E00120BDE8F883E08C401EE08443
:101EC000A0684B46B0F5805F4FF000024FF08001F4
:101ED0002046009703D001F006F9E8B90DE001F0C3
:101EE00002F9C8B928882168C0F308004860206951
:101EF00008B16D1C05E0AD1C03E0216815F8010B6D
:101F00004860E08C0028D8D14B4600224021204672
:101F1000009701F0E8F808B10320CCE7202084F80E
:101F2000390084F838800020C5E70220C3E77047F5
:101F3000FEE700007FB51C481A49012401604FF4F8
:101F400080314160002181600461184A0162C0E96A
:101F50000A210225C160C0E9064504634461FEF719
:101F6000FAFE18B14A2112A001F0DCF90420CDE9F3
:101F7000000469460C480294FEF7A2FD18B15421F2
:101F80000BA001F0CFF90820CDE90005694606480D
:101F9000FEF796FD002803D05D2105A001F0C2F9EF
:101FA0007FBD000000200140200900200100000F3B
:101FB0002E2E2F5372632F6164632E630000000086
:101FC000194808B5016841F48001016000680022E9
:101FD00000F48000009011463820FFF7A7FA38205F
:101FE000FFF798FA002211463920FFF79FFA3920AF
:101FF000FFF790FA002211463A20FFF797FA3A20AD
:10200000FFF788FA002211464520FFF78FFA452096
:10201000FFF780FA002211464620FFF787FABDE855
:1020200008404620FFF776BA303802402DE9F041EB
:102030002C4886B00024016841F004010160016869
:1020400001F004010591016841F08001016001681F
:1020500001F080010591016841F001010160016812
:1020600001F001010591016841F002010160006881
:102070001D4F00F00200059001224FF44C413846FC
:10208000FFF7B8F90122DFF8648096033146404635
:10209000FFF7B0F901254FF49840CDE90005CDE9EF
:1020A000025469463846FFF7E1F8E8030090CDE9AD
:1020B0000154694638460394FFF7D8F82020CDE94B
:1020C0000004694638460294FFF7D0F8CDE9006570
:1020D000CDE9025469464046FFF7C8F806B0BDE8AE
:1020E000F081000030380240000802400004024045
:1020F0000D4810B50B4901604FF4E13141600021FA
:1021000081600C22C160C0E904128161C161FFF7E6
:1021100069FD002805D0BDE81040482103A001F06A
:1021200001B910BD00100140C80900202E2E2F5308
:1021300072632F75736172742E6300000D4810B5C1
:102140000B4901604FF4E1314160002181600C22B4
:10215000C160C0E904128161C161FFF743FD00283D
:1021600005D0BDE810405B2103A001F0DBB810BD35
:1021700000140140080A00202E2E2F5372632F7581
:10218000736172742E630000FEE770470907090E41
:10219000002806DA00F00F0000F1E02080F8141D9E
:1021A000704700F1E02080F800147047704700008D
:1021B00070B50D460446202100F024F9294620463A
:1021C00000F064FA0148206070BD0000803F000804
:1021D00070B5044672B63F2080F3118862B6E0689D
:1021E00018B90021144800F0C5FCE568E07D401CEA
:1021F000C0B2E075217D81420BD3A27D206950F8E9
:102200002200E060A07D00B9A175A07D401EA075F0
:102210000CE00022E260491C814207D0002080F3DC
:1022200011884FF49B71044800F0A4FC002080F357
:102230001188284670BD0000543F000870B50D4657
:10224000044672B63F2080F3118862B6E67D36B947
:10225000002080F31188D221154800F08BFCA8786B
:1022600010B1E878401CE870761EF0B2E075217E6F
:10227000814200D92076E068E56080B1A17D491CEB
:10228000A175A17D227D914201D10021A175A27D80
:10229000216941F82200002080F3118870BD0548B3
:1022A0000168227F0123521E934019430160F2E727
:1022B000543F00081400002070B516460D00044677
:1022C00003D16421254800F055FC72B63F2080F30D
:1022D000118862B6E07DA6F57F41FF3918D0F1B2D2
:1022E00081421FD2A978012611B1E978491CE97011
:1022F000401EC0B2E075217E814200D92076E068A0
:10230000C8B1617D206940F82150607DE8B11EE0D0
:102310000028E7D1002686F311886E210F4800F0CF
:1023200029FC00E00026002080F31188284600F0F8
:1023300071F8304670BDE56009480168227F0123CD
:10234000521E93401943016004E0207D6075607D5A
:10235000401E6075002080F31188EAE7543F0008B2
:10236000140000202DE9F0410C460546491EDDF819
:10237000208006981E4617461F2900D820B14FF42A
:10238000FA710A4800F0F6FB3246394605F10C00B6
:1023900000F00EF82C77284600F016F82868414621
:1023A00002682846BDE8F04110470000243F0008BD
:1023B00000230360416002720AB143728372521CAF
:1023C000C272C17A0173704770B5047F0546601E02
:1023D0000A4E1F2802D856F8240018B16421084874
:1023E00000F0C8FB72B63F2080F3118862B646F851
:1023F0002450002080F3118870BD0000C80B00201D
:10240000483F0008002202E000F8012B491E002985
:10241000FAD1704770B585780446002D0DD072B69C
:102420003F2080F3118862B6E078012806D9E07871
:10243000401EE070002080F3118870BD002080F302
:1024400011880A486D1E0068854204D34FF4CD718F
:10245000074800F08FFB074905EB850001EB800082
:102460002146BDE8704000F0A5BA00001800002029
:10247000703F00084C0C00200B4910B5002008608C
:102480000A4908600A49086020210A48FFF7BAFF94
:1024900084210948FFF7B6FF04210848FFF7B2FF7F
:1024A000BDE8104000F03ABB180000201C000020DE
:1024B00020000020880C0020C80B00201400002001
:1024C0000A484FF47A710068B0FBF1F0401EB0F199
:1024D000807F0AD24FF0E0214861054AF02082F85F
:1024E000140D00208861072008617047100000204B
:1024F0000FE000E02DE9F041144C804615462068BD
:102500000F46032803D3C821114800F033FB114EB6
:10251000206858B100EB800006EB800030F8080C12
:10252000A84203D3C9210A4800F024FB20682B46A7
:1025300000EB800006EB80003A46414600F0FAF9D5
:102540002068401C2060BDE8F081000018000020D9
:10255000703F00084C0C0020024AC2E900018900CB
:10256000FFF750BF1C000020FFF7AAFF72B63F2004
:1025700080F3118862B6184C206828B32068B0FA3E
:1025800080F0C0F12006154850F82650002080F356
:1025900011882846FFF71CFE07462868394642681E
:1025A000284690473846FFF735FF72B63F2080F344
:1025B000118862B6E8680028DED120680121761E05
:1025C000B14088432060D7E700F0D0FA72B63F20D0
:1025D00080F3118862B6CFE714000020C80B0020FA
:1025E00070B5284901EB0014254620E0A86868B1C1
:1025F00034B9002080F311886E21234800F0BAFA24
:10260000A86860600020A860616803E0002080F393
:10261000118870BD888998B18889401E8881888911
:10262000D0B10C46002080F31188BFF36F8F72B6D3
:102630003F2080F3118862B661680029EAD1D5E7AE
:1026400048686060C87800F07F00C870002080F3A0
:102650001188BFF36F8FEAE78868CA8912B18A814F
:102660000C4605E04A686260CA7802F07F02CA70D0
:10267000002282F311880268D3684FF6FF729847F0
:10268000D5E70000880C0020943F0008024A026051
:10269000024AC0E901217047303F000825280008A0
:1026A0002DE9F043446887B00F46054614B1A86889
:1026B000A04204D04FF4C871344800F05BFAAE6811
:1026C00039462846B047022803D130492846103100
:1026D000B0470028F3D0082853D3A8682B4F8DE8C3
:1026E0005100183709E039462846A047032803D18E
:1026F000264928461031A047AC68B442F3D1694658
:10270000284600F091F8DFF88480040008F11008F2
:102710006F4608D44FEA080657F82420311D284692
:102720009047641EF8D5DFF86490009C09F11C09FD
:10273000AC6021E0A8680026009002E0761C47F813
:1027400026001249AA68103128469047A868A0427E
:10275000F4D10098A860062E04DB4FF4CD710B482D
:1027600000F008FA4FEA080457F82620211D2846F1
:102770009047761EF8D5009C49462846A047082871
:10278000D8D06C60AC6007B0BDE8F083283F00088B
:10279000F0B5044687B0D4E900060D4620B1A06824
:1027A00010B11E48864203D0C8211D4800F0E2F94E
:1027B000A268294620469047082803D0D22118480D
:1027C00000F0D8F96F46A2680025009209E06D1C60
:1027D000062D03DBDC21124800F0CCF9A26847F893
:1027E00025200F49204610319047A068B042EED115
:1027F0000B4E00981036A06057F82520311D20465A
:1028000090476D1EF8D50649009E1C312046B04702
:102810000828D8D06660A66007B0F0BD252800085B
:10282000283F0008042070472DE9F05F81464048AA
:102830008D680A680E464FF0FF348346954201D1F9
:10284000014612E03A49484608399047D9F80880CD
:102850004846454501D1002466E035490839A84776
:10286000D9F80800404503D159464846A847F2E741
:102870003168884203D159464846A84754E02C495C
:102880000124C6F804804FF0000A48460839D9F8F8
:102890000870C04716E0641CD9F8080046F8240008
:1028A000D9F808204846AA4209D1062C05DB204861
:1028B0004FF4FF71183800F05DF9641E34E01C49D4
:1028C000083990470028E6D0BAF1000F2CD1062C29
:1028D00005DB17484FF40271183800F04BF95946E0
:1028E0004846A8472046042156F82020BA4215D071
:1028F000401EF9D5032917D0042559464846B84744
:10290000032803D10A4948460839B847D9F808705E
:10291000204600BF56F82010B94201D1441E03E002
:10292000401EF7D5032DE8D12046BDE8F09F0000FA
:10293000403F00082DE9F0411D4617465FEA0108B7
:10294000044604D0042F02D3281DA84203D86421D2
:10295000174800F00FF9C4F800800420A081012678
:10296000A8B202E0091DA181761CA1898142F9D398
:102970008DB2AF4203D26E210D4800F0FBF8791BF7
:102980000120E081206807E000EB86020260006819
:10299000E289491B521CE281A942F5D20021016063
:1029A000E18921826182C4E90180BDE8F0810000F3
:1029B000773F000870B50446008A0D46E1898842D9
:1029C00005D26068A84202D8A068A84203D2C821F4
:1029D000084800F0CFF872B63F2080F3118862B645
:1029E000206828602560208A401C2082002080F317
:1029F000118870BD773F000870B5054672B63F205C
:102A000080F3118862B6AC7D0020A87580F3118830
:102A100004E0687DFFF7E4FD641EE4B2002CF8D109
:102A200070BD0021817570474FF46171014800F05D
:102A3000A1B80000543F000810B572B63F2181F3E1
:102A4000118862B6C16861B90A49C160C17D491E79
:102A5000C17509490A68037F01245B1E9C4022431B
:102A60000A60817D491C8175002080F31188012056
:102A700010BD0000503F0008140000202DE9F04177
:102A80000446C07817460E4600F07F05A089A1686D
:102A900031B128B926B1022D02D22088042804D2EF
:102AA0004FF4C8710D4800F065F872B63F2080F30E
:102AB000118862B6A681E781E078000609D4E07843
:102AC00040F08000E070064800EB0510816861600E
:102AD0008460002080F31188BDE8F081943F0008F5
:102AE000880C00202DE9F0411D4616460F4604468D
:102AF000042A01DB022D04D34FF49671064800F03E
:102B000039F800206060A081E0812680A760A07075
:102B1000E570BDE8F0810000943F000811480168AD
:102B2000114A11430160001D016841F07C510160B0
:102B3000001D01684FEA3242114301604FF0E0206E
:102B40004068082100F0070001EBC0004FF03F3261
:102B500001464FEA810101F1E021401EC1F8FC234A
:102B6000F6D1704718ED00E03F3F3F00002080F3B2
:102B7000118870477047704710B5FEF747FCFEF7A5
:102B8000A4FFBDE810400020FFF72ABD30B524485F
:102B900093B00024016841F080510160006800F0AA
:102BA000805011901F48016841F440410160006865
:102BB000022500F440401190012003901020049061
:102BC000009506950820CDE907406020CDE909056C
:102BD00004200B906846FEF7C9FD00B1FEE70F2008
:102BE000CDE90C054FF48050CDE90E4003210CA82F
:102BF0001094FEF7CDFC00B1FEE7FEF761FD4FF447
:102C00007A71B0FBF1F0FEF74CFF0420FEF73CFFB9
:102C100000221146501EFEF789FC13B030BD0000A3
:102C200040380240007000401048016841F47001D3
:102C300001600F48016841F0010101600C4A002168
:102C40000832116002680B4B1A400260031D0A4AE9
:102C50001A60026822F48022026005480C3001608C
:102C600002495806803908607047000088ED00E08E
:102C700000380240FFFFF6FE1030002410B5806BD4
:102C80000021C185C184FEF724FF10BD70B5846B9F
:102C90002068406994F83910C0F3C010002521293C
:102CA00004D118B1E584204600F046F82068406958
:102CB00094F83A10C0F38010222904D118B1E585A8
:102CC000204600F02BF8E06B40F01000E063204657
:102CD000FEF7FFFE70BD10B50146806B09680968FC
:102CE000C90513D40021C1850168CA6822F4807225
:102CF000CA6001684A6922F001024A6101684A69B2
:102D000022F040024A61202180F83A10FFF7B0F823
:102D100010BD10B5806BFFF7ACF810BD0168CA6834
:102D200022F49072CA6001684A6922F001024A6185
:102D3000202180F83A1070470168CA6822F0C0026A
:102D4000CA60202180F83910704710B590F83A1009
:102D5000222901D0022010BD8168B1F5805F11D019
:102D60000169002901681FD0496801F07F03816A69
:102D70004A1C82620B70C18D491E0904090CC18571
:102D800018D026E00269816A002A0268526805D0DC
:102D9000D2B20A80816A491C8162ECE7C2F3080260
:102DA0000A80816A891CF7E74A68816A4B1C836242
:102DB0000A70E0E70168CA6822F49072CA6001688C
:102DC0004A6922F001024A61202180F83A10FFF797
:102DD0004FF8002010BD00002DE9F04104460068C6
:102DE000016921F44052E168114301612168C8681A
:102DF00049F20C6290432369A268E5691A4363694A
:102E00002B431A430243CA602168486920F4407288
:102E1000A06910434861E1696425B1F5004F974806
:102E2000974A21684FF032083FD0914201D0814249
:102E30007CD1FEF75BFC00EBC00101EB0010616888
:102E40008900B0FBF1F6FEF751FC00EBC00101EB8D
:102E5000001061688900B0FBF1F0B0FBF5F06FF095
:102E60001801484306EB800108EB0110B0FBF5F0B8
:102E700000F0F006FEF73AFC00EBC00101EB001099
:102E800061688900B0FBF1F0B0FBF5F006EB0016CD
:102E9000FEF72CFC00EBC00101EB0010616889001B
:102EA000B0FBF1F7FEF722FCD2E0914201D0814263
:102EB0003DD1FEF71BFC00EBC00101EB0010616887
:102EC0004900B0FBF1F0B0FBF5F00601FEF70EFC97
:102ED00000EBC00101EB001061684900B0FBF1F7A5
:102EE000FEF704FC00EBC00101EB00106168490033
:102EF000B0FBF1F0B0FBF5F06FF01801484307EBC1
:102F0000800108EBC100B0FBF5F000F0F80006EB23
:102F10004006FEF7EBFB00EBC00101EB001061681F
:102F20004900B0FBF1F7FEF7E1FB3CE055E0FEF7AE
:102F3000CDFB00EBC00101EB001061684900B0FB64
:102F4000F1F0B0FBF5F00601FEF7C0FB00EBC001AD
:102F500001EB001061684900B0FBF1F7FEF7B6FB2A
:102F600000EBC00101EB001061684900B0FBF1F01B
:102F7000B0FBF5F06FF01801484307EB800108EB58
:102F8000C100B0FBF5F000F0F80006EB4006FEF7DC
:102F90009DFB00EBC00101EB001061684900B0FB34
:102FA000F1F7FEF793FB00EBC00101EB0010616845
:102FB0004900B0FBF1F0B0FBF5F06FF018014843A9
:102FC00007EB800108EBC100B0FBF5F000F0070053
:102FD000216830448860BDE8F081FEF777FB00EBA4
:102FE000C00101EB001061688900B0FBF1F6FEF74B
:102FF0006DFB00EBC00101EB001061688900B0FBC4
:10300000F1F0B0FBF5F06FF01801484306EB8001DA
:1030100008EB0110B0FBF5F000F0F006FEF756FBF0
:1030200000EBC00101EB001061688900B0FBF1F01A
:10303000B0FBF5F006EB0016FEF748FB00EBC00115
:1030400001EB001061688900B0FBF1F7FEF73EFB71
:1030500000EBC00101EB001061688900B0FBF1F0EA
:10306000B0FBF5F06FF01801484307EB800108EB67
:103070000110B0FBF5F000F00F00A9E700140140CB
:103080000010014090F83910212901D0022070472A
:103090008168B1F5805F016A0BD04A1C0262026848
:1030A00009785160C18C491E0904090CC1840ED0F5
:1030B00017E009880268C1F308015160016900291D
:1030C000016A02D0491C0162ECE7891CFBE7016838
:1030D000CA6822F08002CA600068C16841F04001FD
:1030E000C160002070472DE9F041984617460E4612
:1030F0000446069D1DE0681C1BD02DB1FEF780F92B
:10310000A0EB0800A84214D92068C16821F4D0714E
:10311000C1602068416921F001014161202084F8EB
:10312000390084F83A00002084F838000320BDE814
:10313000F0812068006836EA000004D00020B84220
:10314000D9D00020F3E70120F9E7000010B50122F3
:103150000449054800F01CF8BDE810400248FEF79D
:10316000B9BC000038080020C809002010B50622AC
:103170000449054800F00CF8BDE810400248FEF78D
:10318000A9BC000048080020080A0020FEE7000053
:1031900070B5ADF5816D0E46054614464FF480615D
:1031A0006846FDF75FF828680168C943C90621D45D
:1031B00001684068CDF80004686B00684068C0F59D
:1031C000806081B2304600F078FE304600F006FEA6
:1031D00005042D0C0ED02A466946304600F02EFE1E
:1031E000012C0AD0062C05D106482A46694600BFA4
:1031F00000F082FE0DF5816D70BD2A4669460248D9
:10320000F6E70000C8090020080A00201FB5098859
:10321000012922D0022920D0052904D0104981603B
:10322000002004B010BD9FED0F0A0521022000F020
:103230005DFD0D4880ED000A10EE100AFDF7FEF866
:1032400041EC100B09A153EC102B684600F07CF800
:103250000E226946094800F04FFE0320E1E7000016
:1032600025280008CDCC1C41100900204241545FA4
:10327000566F6C3A25302E32660D0A00080A00207F
:10328000074810B5046807492046FEF791FF21461C
:1032900004F120000023BDE810400522FFF722BC06
:1032A000003F0008A932000810B5044642F2107130
:1032B0000A462030FFF7E2FB0148A060082010BD5D
:1032C0000D320008134810B50068C16841F01001C4
:1032D000C16011480068C16841F01001C1604FF43D
:1032E000806422460D490B48FEF776FD22460C49C4
:1032F0000948FEF771FD0949224601F6040000F075
:1033000095FD22460649BDE8104001F2124000F04A
:103310008DBD0000C8090020080A002034000020EC
:1033200036040020FEE700000FB4054B10B503A9DA
:10333000044A029800F0EEF810BC5DF814FB00009F
:103340004D3C0008240000200FB4084B10B504A920
:1033500002AA039800F0DEF8044602A9002000F05B
:1033600070FC204610BC5DF814FB0000433C0008D4
:1033700002E008C8121F08C1002AFAD1704770473E
:10338000002001E001C1121F002AFBD1704700009C
:103390002DE9FF5F82B00021DDE90430020DDDF888
:1033A00040B0034318D044F61050A2F2FF3242431B
:1033B0001514119801281FD0A5EB0B00401C5FEAE3
:1033C000000A4FF000064E4FDFF83891B0465046E5
:1033D00015D5CAF1000413E0119801244AA301286D
:1033E00001D16FEA0B010298119AC0E90031C0E9DE
:1033F000024206B0BDE8F09FCBF10000DFE70446D3
:103400000021404A491842EB0450CDE9001012E077
:10341000E00707D032463B4640464946FCF72DFFC1
:103420008046894632463B4610461946FCF725FF42
:1034300006460F466410002CEAD1DDE90401DDE9FF
:103440000023BAF1000F06DAFCF717FF42464B469D
:10345000FCF713FF05E0FCF782FF42464B46FCF702
:103460007EFF04460E460022284BFDF79FF903D845
:103470004FF0FF30014607E00022254B2046314641
:10348000FDF7D4F8FDF779F9102409E0002C0ADBE8
:103490000A220023FCF79CFE039B30321A55641E5F
:1034A00050EA0102F2D1641C039AC4F111031444DE
:1034B000119A012A03D0012208430DD10AE00843E2
:1034C00004D000204FF0110B119072E7A3EB0B0515
:1034D0006D1E0DE05B4504DD4FF0000205F10105B6
:1034E00004E003DA4FF00002A5F10105002AECD058
:1034F00002981199C0E90231C0E9004579E700005E
:10350000000014400000F03F300000000000F043D5
:103510000000E03F2DE9FF4F95B09B4689460646E7
:1035200000250FE2252877D100242746F84A0121FB
:10353000059400E0044316F8013F203B01FA03F034
:103540001042F7D130782A2811D06FF02F0330784D
:10355000A0F13002092A16D8059A44F0020402EBC1
:10356000820203EB42021044761C0590EFE759F803
:10357000042B0592002A03DA504244F400540590CB
:1035800044F00204761C30782E2816D116F8010F6C
:1035900044F004042A280DD06FF02F023078A0F1F7
:1035A0003003092B09D807EB870302EB4303C71845
:1035B000761CF3E759F8047B761C30786C280FD022
:1035C00006DC4C2817D068280DD06A2814D104E0F6
:1035D000742810D07A280FD10DE044F400140AE0CA
:1035E00044F4801401E044F440147278824202D121
:1035F00004F58014761C761C307866280BD013DC1A
:10360000582877D009DC002875D04528F6D0462800
:10361000F4D047281AD19DE118E0632835D06428FA
:1036200079D0652812D195E1702873D008DC67281D
:10363000F1D069286FD06E280DD06F2806D1B5E083
:1036400073282CD0752875D0782874D05A461799CD
:1036500090476D1C75E1C4F30250022809D003287D
:103660000DD0D9F8001004280DD00D6009F104091F
:1036700067E1D9F80010EA17C1E90052F6E7D9F876
:1036800000100D80F2E70D70F0E719F8041B8DF8BB
:10369000001000208DF80100EA46012003E059F8EF
:1036A00004AB4FF0FF3061074FF0000102D40DE092
:1036B00008F101018846B9420FDA8045F8DB1AF8B3
:1036C00008100029F4D108E008F101018846814280
:1036D000FADB1AF808100029F6D105985B46A0EB32
:1036E000080721463846179A00F094FA284400EB60
:1036F000080507E04DE029E10DE01AF8010B5A46F4
:1037000017999047B8F10108F7D25B462146384631
:10371000179A13E142E00A220092C4F302524FF0DA
:10372000000A022A08D059F804CB032A4FEAEC71A8
:103730000AD00DE029E02AE009F1070121F0070293
:10374000F2E802C1914609E00FFA8CFC4FEAEC71F5
:10375000042A03D14FFA8CFC4FEAEC71002907DAF6
:103760000A460021DCF1000C61EB02012D2202E08F
:10377000220504D52B228DF80420012203E0E20764
:1037800001D02022F7E7904659E00A2102E01022FA
:103790000DE010214FF0000A00910BE010224FF0D5
:1037A000000A44F004040827009203E008224FF0C6
:1037B000000A0092C4F30252022A05D059F804CB41
:1037C0000021032A08D009E009F1070121F00702CE
:1037D000F2E802C1914605E01FFA8CFC042A01D1EF
:1037E0000CF0FF0C4FF00008220728D5702806D0F7
:1037F000009B83F0100353EA0A0305D00EE0402239
:103800008DF80420012208E05CEA010206D0302293
:103810008DF804208DF8050002229046009B83F06D
:10382000080353EA0A030AD15CEA010201D16207E4
:1038300005D530228DF804204FF001087F1E58284E
:1038400004D034A003900EA802900DE036A0F9E752
:1038500053466046009AFCF7BBFC84460398825CA2
:103860000298401E029002705CEA0100F0D10298BA
:1038700006A9081A00F1200A600702D524F4803452
:1038800000E00127574502DDA7EB0A0000E0002019
:1038900000EB0A01009005984144401A0590E003AE
:1038A00006D45B462146179A059800F0B3F9054403
:1038B000002706E001A85A46C05D179990476D1C85
:1038C0007F1C4745F6DBE0030CD55B462146179A83
:1038D000059800F09FF9054404E030205A461799F6
:1038E00090476D1C0099481E00900029F5DC08E007
:1038F000029802995A460078491C029117999047FC
:103900006D1CBAF10001AAF1010AF1DC65E10000C9
:1039100009280100303132333435363738396162A5
:103920006364656600000000303132333435363769
:1039300038394142434445460000000000F058F940
:103940000544761C307800287FF4ECAD19B0284689
:10395000BDE8F08F620700D4062709F1070222F0C4
:10396000070CFCE80223E14603F000485FEA080C7C
:1039700002D00FF2702C0DE05FEA045C02D50FF26A
:10398000682C07E05FEAC47C02D00FF2602C01E0F3
:10399000AFF2700C4FF0FF3823F00043CDF850C069
:1039A00065280CD006DC452809D046281DD04728BC
:1039B0003DD13DE0662818D067287ED138E000214F
:1039C000112F01DB112000E0781CCDE9000106A9D0
:1039D0000EA8FFF7DDFCDDE90F010E9A039100212F
:1039E000009207F1010A04914DE04FF0004000976A
:1039F000CDE9011006A90EA8FFF7CAFCDDE90F0208
:103A000003920E9B11990022DDF80CA00093049202
:103A100011B9791C00EB010AB7EB0A0004D4C0F11C
:103A2000FF3007F1010A0490AAEB0700019044E07F
:103A3000012F00DA01270021112F01DD112000E004
:103A40003846CDE9000106A90EA8FFF7A1FCDDE983
:103A50000F010E9A0391002104910092BA462107AA
:103A60000CD40399514500DA8A46BAF1010F05DDFD
:103A7000009AAAF10101515C302908D0B84202DA5B
:103A800010F1040F06DA0121CDE9011015E0AAF1C9
:103A90000101E9E7002805DC049901440491AAEB3F
:103AA000000102E0411C514500DD8A460499401A9C
:103AB000401C01904FF000400290200704D4019870
:103AC000504501DBCDF8048000208DF84F000298AE
:103AD0000DF14F07B0F1004F25D02B200E9002982A
:103AE0004FF0020800280CDA404202902D200E9080
:103AF00007E00A210298FCF7D0FC3031029007F869
:103B0000011DB8F10001A8F10108F2DC02980028BB
:103B1000EFD1791E0E980870307800F0200040F048
:103B2000450007F8020D12A8C01B00F10708149801
:103B3000007800B1012000EB0A01019801EBE0716F
:103B400005984144401A401E0590E00306D45B46A8
:103B50002146179A059800F05DF8054414980078FE
:103B600018B15A46179990476D1CE00324D55B465F
:103B70002146179A059800F04DF805441CE004987A
:103B8000002807DBDDE90301884203DD0098405C83
:103B9000179901E0179930205A469047049805F18B
:103BA0000105401C04900198401E019004D12E2074
:103BB0005A46179990476D1CBAF10001AAF1010A03
:103BC000DDDC05E017F8010B5A46179990476D1C8C
:103BD000B8F10001A8F10108F4DC5B462146179A10
:103BE0000598ABE62D0000002B000000200000002F
:103BF0002DE9F041044600251E461746880404D4EA
:103C000005E039462020B0476D1C641EF9D52846D2
:103C1000BDE8F0812DE9F041044600251E4690469E
:103C2000C80301D5302700E02027880404D505E02B
:103C300041463846B0476D1C641EF9D52846BDE89C
:103C4000F0810A68531C0B601070704713B54FF673
:103C5000FF73012269460248FEF70CF900981CBD6B
:103C6000C809002070B50D462DED028B06469FED6C
:103C70000D8A00240AE0304600F016F800EE100A23
:103C8000641CE4B2B8EE400A30EE088AAC42F2D3CB
:103C900000EE105AF8EE400A88EE200ABDEC028BC6
:103CA00070BD00000000000010B5044606220D495A
:103CB0000D48FDF7D3F80B4800EB840050F8042CB6
:103CC00041688A4204D9C3689A4201D290B210BDB9
:103CD000914204D9C268914201D288B210BD808954
:103CE00080B210BD880800202009002070B505466C
:103CF0002DED028B0C4610EE100AFCF79FFB41ECF9
:103D0000180B21462846FFF7ADFF10EE100AFCF70E
:103D100095FB9FED0B1B53EC112BFCF7AEFA53EC0C
:103D2000182BFCF7AAFA9FED081B53EC112BFCF79C
:103D300016FBFCF796FBBDEC028B00EE100A70BD83
:103D40006666666666660A400000000000FEAF40D8
:103D50003EB5FDF763FBFEF719FFFEF767F9FEF7C7
:103D60002FF9FEF7C5F9FEF7E9F9FEF7E3F814A01D
:103D7000FFF7DAFA00F0B0F81549086000688047EC
:103D8000FFF77EFAFEF778FB08211248FEF7E4FB06
:103D90001048042228212030FEF7ACFB00200090C0
:103DA000019002900C480B4A0A230168283A0068E7
:103DB00009688C680121A047BDE83E40FEF7D4BBEE
:103DC00068656C6C6F20776F7264210D0A000000CB
:103DD00000000020C8080020003F000800B50100D6
:103DE00006D04A688868824205D14FF0000000BDC5
:103DF0004FF0FF3000BD02D2A0EB020000BD08462C
:103E000000F005F84A688968511A401A00BD08B1E7
:103E1000006870474FF0FF30704720B1C1684160C3
:103E20008160002070474FF0FF30704719B1C160CA
:103E30000260FFF7F2BF4FF0FF3070472DE9F0410D
:103E4000040015460F464FF0FF3020D0002F1ED043
:103E50006068A1688842204609D2FFF7BFFFA842E8
:103E600003D82046FFF7BAFF0546616807E0FFF771
:103E7000CEFF6168E2688A1A801AA84209D92A46E8
:103E80003846FCF7D6F96068284460602846BDE8EB
:103E9000F0812046FFF7BBFF6168E2688A1A861A44
:103EA00032463846FCF7C5F9E0686060AA1BB919CC
:103EB0002046FFF7C3FF3044E9E748B10268B1FB91
:103EC000F2F302FB1311C268114481600846704787
:103ED0004FF0FF3070470000044803490160044977
:103EE0004160044981607047C53200082800002005
:103EF00091310008F93E00084FF6FF73FDF7BABF95
:103F000058080020000610160006101600000000D9
:103F10000000000001020304060708090000000079
:103F200001020304717600007165705F68736D00B3
:103F300091270008A12600080000000001000000F1
:103F4000020000000300000071665F6163740000FE
:103F50000000000071665F6163747100232A00082D
:103F6000F929000865230008392A0008292A0008D1
:103F700071665F64796E0071665F6D656D0000004B
:103F800091270008A126000865230008B92200082F
:103F90003D22000871665F74696D6500BC3F0008D2
:103FA000000000202800000070330008E43F0008F3
:103FB00028000020801C0000803300080000000062
:103FC0000100000010000000000000000024F400C8
:103FD00000000000000000000000000000000000E1
:043FE00000000000DD
:040000050800019955
:00000001FF
